:100000000C94EC020C9424030C9424030C9424030D
:100010000C9424030C9424030C9424030C942403C4
:100020000C9424030C9424030C94552A0C94292B2F
:100030000C946B250C9424030C9424030C9424033B
:100040000C9424030C948E1C0C9424030C94240311
:100050000C94711D0C94F2250C9424030C9424032D
:100060000C9424030C9424030C9424030C94240374
:100070000C9424030C9424030C9424030C94240364
:100080000C9424030C9424030C9424030C94240354
:100090000C9424030C9424030C9424030C94240344
:1000A0000C9424030C9424030C94240329001E00B4
:1000B0001F0020002100220023002400250026002C
:1000C00027002D002E002A004C002B0014001A00DF
:1000D0000800150017001C0018000C001200130087
:1000E0002F00300031004B003900040016000700DB
:1000F00009000A000B000D000E000F003300340051
:10010000000028004E00E10000001D001B0006005A
:100110001900050011001000360037003800E50016
:1001200052004A00E000E300E200000000002C0062
:1001300000000000E4000000E600215250005100E1
:100140004F0035003A003B003C003D003E003F00C0
:100150004000410042004300440045004C0049007B
:10016000007C0100520001000100010001000100BB
:100170000100010001000100010001000100010077
:10018000500051004F00010001000100010001007A
:1001900001000100010000000100010023780000BF
:1001A0002578277821780378027804780100010007
:1001B00001000100AE00A900A80024782678287864
:1001C0000000000020780000000001000000010095
:1001D0000100AC00AA00AB001E0F0500047F3F1F0A
:1001E000643214643214783C1E1E140A052223253E
:1001F0002628292A2C2D2F3032333536383A3B3DEC
:100200003E4042434547494A4C4E50515355575939
:100210005A5C5E6062646668696B6D6F7173757756
:10022000797B7D7F81838587898A8C8E9092949655
:10023000989A9C9E9FA1A3A5A7A8AAACAEAFB1B364
:10024000B4B6B8B9BBBCBEBFC1C2C3C5C6C7C9CAB4
:10025000CBCCCDCED0D1D2D2D3D4D5D6D7D7D8D976
:10026000D9DADADBDBDBDCDCDCDCDCDDDDDDDDDCD4
:10027000DCDCDCDCDBDBDBDADAD9D9D8D7D7D6D5E6
:10028000D4D3D2D2D1D0CECDCCCBCAC9C7C6C5C3A8
:10029000C2C1BFBEBCBBB9B8B6B4B3B1AFAEACAAF5
:1002A000A8A7A5A3A19F9E9C9A98969492908E8CA5
:1002B0008A89878583817F7D7B79777573716F6D7F
:1002C0006B6968666462605E5C5A59575553515059
:1002D0004E4C4A4947454342403E3D3B3A3836350D
:1002E0003332302F2D2C2A292826252322FFAA7FBE
:1002F0005540000000000000000000000001010265
:1003000003040506080A0C0F1114181C2024292EBA
:1003100033393F464C535B626A7179818A929AA263
:10032000AAB2B9C1C8CFD5DCE1E7EBF0F4F7FAFC2B
:10033000FDFEFFFEFDFCFAF7F4F0EBE7E1DCD5CFC4
:10034000C8C1B9B2AAA29A928A8179716A625B53D2
:100350004C463F39332E2924201C1814110F0C0A47
:10036000080605040302010100000000000000006F
:10037000000000010101010101010101020202026C
:10038000020202020203030303030303030404043F
:100390000404040405050505050606060606070708
:1003A00007070708080808090909090A0A0A0B0BC0
:1003B0000B0C0C0C0D0D0D0E0E0E0F0F0F1010115F
:1003C00011111212131314141515161617171818E5
:1003D00019191A1A1B1B1C1D1D1E1E1F202021224D
:1003E00022232424252626272829292A2B2C2D2D93
:1003F0002E2F30313232333435363738393A3B3CB0
:100400003D3E3F404142434445464748494A4C4DA2
:100410004E4F50515354555658595A5B5D5E5F616B
:100420006264656668696B6C6D6F707273757778FE
:100430007A7B7D7E8082838587888A8C8E8F91935C
:100440009596989A9C9EA0A2A3A5A7A9ABADAFB183
:10045000B3B5B7BABCBEC0C2C4C6C9CBCDCFD1D468
:10046000D6D8DBDDDFE2E4E7E9EBEEF0F3F5F8FA0E
:10047000FDFF0A03580044003600380000000C035A
:100480007800690075006400690000000403090435
:1004900009023B00020100A0FA0904000001030167
:1004A0000100092111010001224400070581030810
:1004B00000010904010001030000000921110100ED
:1004C0000122B6000705820320000112010002008C
:1004D0000000084478686801000102000105010974
:1004E00002A10185020901A10005091901290815C8
:1004F00000250195087501810205010930093115B2
:1005000081257F95027508810609381581257F951B
:100510000175088106050C0A38021581257F9501B1
:1005200075088106C0C005010980A1018503190174
:100530002AB700150126B700950175108100C00586
:100540000C0901A101850419012AA002150126A0A8
:1005500002950175108100C005010906A1018506FB
:10056000050719E029E715002501950875018102A5
:100570000507190029EF1500250195F07501810285
:100580000508190129059505750191029501750365
:100590009101C005010906A101050719E029E71528
:1005A00000250195087501810295017508810105F5
:1005B00007190029FF150026FF0095067508810020
:1005C00005081901290515002501950575019102F8
:1005D000950175039101C00011241FBECFEFDAE031
:1005E000DEBFCDBF04B603FE18C080918D0390918D
:1005F0008E03A0918F03B09190038730904BA7405A
:10060000B04B59F410928D0310928E0310928F0309
:1006100010929003E0E0F8E3099511E0A0E0B1E06A
:10062000E4EFFEE502C005900D92A43EB107D9F7B4
:1006300023E0A4EEB1E001C01D92AD38B207E1F7AE
:100640000E94FC120C94DE2E0C9400008230B8F450
:100650006530A8F44F3098F450E09FE0699F400D5A
:10066000511D1124FA019BE4899FE00DF11D112415
:10067000EE0FFF1FE455FF4F85919491089581E09F
:1006800090E008950E942603089581E008950E9455
:100690004503089581E008950E94450308950E944E
:1006A0004C03089508950E9452030895A6E0B0E017
:1006B000ECE5F3E00C948A2D49835A839E833091B4
:1006C000EB0189819A8131111AC03E81332399F05F
:1006D000222389F00E947D09182F682F89819A8131
:1006E0000E94590969817A81812F0E949C10269667
:1006F000E3E00C94A62D0E946B09182FF3CF0E9403
:100700007D0969817A81F1CFFC01262F40815181D9
:1007100062817381848195810E9456030895CF93ED
:10072000DF93EC0161E00E948403BE010E94470355
:10073000DF91CF910895CF93DF93EC0160E00E94A9
:100740008403BE010E945303DF91CF91089581E09D
:1007500008950E94A7030895CF93C82F0E942E08E2
:100760008C2F0E94A9032FEF84E39CE0215080404E
:100770009040E1F700C00000CF91089581E00E9411
:10078000AC030E941626089580E00E94AC030E94EC
:100790003A2608950F931F93CF93DF938C0161E066
:1007A0000E948403EC01F801858181110E94441AA2
:1007B000B801CE010E944F03811106C080E0DF9195
:1007C000CF911F910F910895B801CE010E94E71BB0
:1007D0008823A1F3B801CE010E943B23882371F343
:1007E000B801CE010E94651F882341F3B801CE01F4
:1007F0000E943B1F882311F3B801CE010E94631AA7
:100800008823E1F2F8018581882361F0C330FCE799
:10081000DF07E9F058F4C115ECE7DE07A9F0C130B5
:10082000DC47B9F0C8010E944A03C9CFCB358CE739
:10083000D807A9F0CC35ECE7DE0771F0CA35DC4704
:1008400089F70E94C40DEECF0E94BE03B7CF0E946D
:10085000CC0D0E94C403B2CF0E94BA0DE3CF0E9418
:10086000C80DE0CF0E94472580E00E94C61B0E9471
:10087000650408950E94161B0E9469040E944C257D
:100880000895089581E0089581FD02C02A9A08958F
:100890002A980895CF93DF93D82F0E944204C82F3F
:1008A000882319F08D2F0E9444048C2FDF91CF9163
:1008B0000895229A2A9A0895CF93C82F0E9441043E
:1008C0008C2F0E944A04CF91089580E00E945C041E
:1008D00008950E9484230E945C040895CF930E948F
:1008E0008423C82F8091E6018C1779F0C093E6012C
:1008F0000E94D7256093E7017093E8018093E90196
:100900009093EA018C2F0E945C04CF910895ADE092
:10091000B0E0EDE8F4E00C948B2D488759876A87A6
:100920007B878C879D8791110E94CA0C1F8286E06D
:10093000FE013896DE01119601900D928A95E1F73D
:100940008D8181110DC029813A814B815C816D813E
:100950007E818F810E94140C2D96E2E00C94A72DCD
:10096000CE0101960E948F038111EDCFF5CFFC01DE
:100970002481213021F4808191810E94AF09089562
:10098000662329F00E94C6200E94AB2108950E9490
:100990003221FACFCF93C82F8823C9F08238C9F407
:1009A0000E94912381FD13C089E30E94B0240E941C
:1009B0005E0D2FEF87EE93E0215080409040E1F7ED
:1009C00000C0000089E30E94C7240E945E0DCF9101
:1009D00008958338A1F40E94912380FDF8CF83E528
:1009E0000E94B0240E945E0D2FEF81EE94E0215012
:1009F00080409040E1F700C0000083E5E4CF8438F8
:100A0000A1F40E94912382FDE2CF87E40E94B024EA
:100A10000E945E0D2FEF81EE94E0215080409040C7
:100A2000E1F700C0000087E4CECF8CEF8C0F813A55
:100A300098F48C2F0E94801E8111C9CF8C2F0E94A8
:100A40002724882329F08C2F0E94C7240E945E0D42
:100A50008C2F0E94B024B9CF80E28C0F883048F4EC
:100A6000C77081E001C0880FCA95EAF70E94AD0CFB
:100A7000ACCFEBE5EC0FE33040F4F0E0EA59FE4F89
:100A8000808190E00E94BB23A2CFE8E5EC0FEB3120
:100A900050F4F0E0EE0FFF1FE05DFE4F808191818A
:100AA0000E94E02394CF83E38C0F833108F08FCF33
:100AB00061E08C2F0E94C0048ACF882309F456C0BD
:100AC000823879F40E94912381FF50C089E30E940B
:100AD000B0240E945E0D89E30E94C7240E945E0D2F
:100AE0000895833859F40E94912380FF3FC083E525
:100AF0000E94B0240E945E0D83E5EECF843859F445
:100B00000E94912382FF32C087E40E94B0240E9499
:100B10005E0D87E4E1CF9CEF980F913AE8F290E206
:100B2000980F983050F4877091E001C0990F8A9522
:100B3000EAF7892F0E94B30CD1CF9BE5980F933031
:100B400028F490E080E00E94BB23089598E5980F78
:100B50009B3128F490E080E00E94E023089593E325
:100B6000980F933118F460E00E94C00408951F9319
:100B7000CF93DF93182FEB010E94CA04209739F41A
:100B8000812F0E945D05DF91CF911F9108958FE91C
:100B90009FE00197F1F700C000002197EFCF70E0D0
:100BA00060E0893311F460E570E00E94B7050895B4
:100BB000882321F00E94AD0C0E945E0D08958823C9
:100BC00021F00E94B30C0E945E0D0895B0E0A0E0F9
:100BD000ECEEF5E00C94842D6C01D62FC72FFC01B0
:100BE0001581068102950F700E94A30CE82E8823C0
:100BF000F9F0E12E1123E1F08C2F807F803461F039
:100C000080E28D0F883008F18C2F807E803221F4B5
:100C1000D230D8F00023C9F080913A0382FF15C08A
:100C200082E00E948E0D0E94A30C91E0E82EE9263E
:100C3000BC2EB2949FE0B922FBE0FB15B8F1EB2D7E
:100C4000F0E0E052F14D0C94442DE12CF1CF0C2F4B
:100C50000F70C07F11F00295007F112399F00023DF
:100C600059F080E28D0F883010F0D11107C0802F2D
:100C70000E94AD0C0E945E0D8D2F5AC0802F0E94E5
:100C8000BD0CF8CF8D2F0E945D05002379F080E226
:100C90008D0F883010F0D11104C0802F0E94B30C4A
:100CA00003C0802F0E94C30C0E945E0DEB2DE85004
:100CB000FF0B349720F40E9484230E945C04EE20F2
:100CC00089F00E949F0C80FD0DC0F60115820E94E4
:100CD000990C0E94B708C6010E94F5070E94990C62
:100CE0000E94C708CDB7DEB7E9E00C94A02D2C2FE9
:100CF0002F70F22EC07FC03219F0F29480EFF822EC
:100D0000DD2341F0D130D1F1112309F444C0002397
:100D1000F1F0B2CF80913A0382FD15C0112359F052
:100D2000FF2029F08F2D0E94AD0C0E945E0D80E007
:100D30000E94CA04BBCF80E00E945D05FF2009F439
:100D4000B5CF8F2DABCF112369F0011104C08F2DCA
:100D50000E94D805ABCF013009F0A8CF8F2D0E949B
:100D6000E10CA4CF0111A2CF8F2D0E94DF058F2DA2
:100D70000E94ED0C8F2D0E94D10C98CF112321F0F1
:100D8000063008F093CFE3CF053008F08FCF8F2DDA
:100D90000E94DF058BCF0023D1F3D93349F43FEF15
:100DA00087EE93E0315080409040E1F700C00000B2
:100DB0008D2F0E945D057ACF8C2F86958695837046
:100DC00069F0813009F072CF8D2F9C2F9370111133
:100DD00002C080E090E00E94E02368CF8D2F9C2F1E
:100DE0009370111102C080E090E00E94BB235ECF9F
:100DF000612F8D2F0E94C00459CF8C2F8370A1F5D5
:100E0000111154CF4D2F429546954770440F440F12
:100E10002D2F2F7030E0042E02C0220F331F0A94B2
:100E2000E2F790E080E0D4FF09C08FE090E002C0DC
:100E3000880F991F4A95E2F780959095C695C695BB
:100E4000C370822B932BC23049F058F4C13019F093
:100E50000E9487082BCF0E947E0828CF0E9490080E
:100E600025CF0E947B0822CF8695112311F08C2F6D
:100E70008170882309F41ACF4D2F4295469547700B
:100E8000440F440F2D2F2F7030E0042E02C0220F8C
:100E9000331F0A94E2F790E080E0D4FF09C08FE0AE
:100EA00090E002C0880F991F4A95E2F780959095CF
:100EB000C695C695C370822B932BC23049F058F467
:100EC000C13019F00E94F208F1CE0E94E908EECE7E
:100ED0000E94FB08EBCE0E949F08E8CECF70112342
:100EE00029F08C2F0E94B7088D2F32CF8D2F0E94B2
:100EF000DF058C2F0E94C708D9CED23F41F160F4A4
:100F0000D03FB9F0D13F81F0112309F446C001115F
:100F1000B3CE8C2F8F711FC0D33F01F1D43FA1F707
:100F200080913A0382FD24C08C2F8F71112311F31D
:100F300012C0112341F0053008F0B8CE8C2F8F710C
:100F40000E94D908B3CE063008F0B0CEF7CF8C2F70
:100F50008F711111CFCF0E94B708A8CE112329F0AD
:100F60008C2F8F710E94AB08A1CE0E94A6089ECE46
:100F7000112349F0CF718C2F0E94B70863E08C2FAA
:100F80000E94700D93CE81E00E948E0D023008F415
:100F90008DCE82E00E948E0D89CE002359F0D93388
:100FA00009F006CFEFEFF7EE23E0E150F0402040EC
:100FB000E1F7FCCE8C2F8F719DCF0F931F93CF93B2
:100FC000DF93EC01688179818D810E94BA098C01DF
:100FD0000E9404090E947A08B801CE010E94E60529
:100FE000DF91CF911F910F910895CF93DF93EC0183
:100FF0008C81882399F0CE010E94CA03811111C00F
:101000000E94A30C882351F08D81882339F08091B0
:101010003A0382FF03C082E00E948E0DDF91CF91E0
:101020000895CE010E94DD07CE010E949B03F6CFFA
:1010300090E080E00E94BB2390E080E00E94E023EB
:101040000E94CA0C0E945E0D0E94C7210E94AB2123
:1010500008950E94DE240E94180808950E94BA0C88
:101060000E942908089592959F70963091F058F447
:10107000925F9F70923058F4803F19F030F4883EB0
:1010800030F481E008959A5FF4CF843FD1F380E09B
:101090000895883EB0F3813FD1F7F3CFFC0124815E
:1010A000222339F0808191810E94AF090E94330888
:1010B000089580E00895A6E0B0E0E1E6F8E00C9441
:1010C0008B2D2696E2E00C94A72DA7E0B0E0EBE68E
:1010D000F8E00C948B2D2796E2E00C94A72D089550
:1010E0000E946F0808950E947008909317028093E1
:1010F0001602089508950E9473080895209116021B
:1011000030911702822B932B0E947308089520912F
:10111000160230911702822393230E9473080895C8
:101120002091160230911702822793270E9473089C
:1011300008950E946F0808950E94990808950E94DA
:101140009C089093150280931402089590E080E02B
:101150000E949F08089521E030E0A90102C0440FD9
:10116000551F8A95E2F7CA010E949F08089521E061
:1011700030E002C0220F331F8A95E2F780911402FB
:1011800090911502822B932B0E949F08089521E0D5
:1011900030E002C0220F331F8A95E2F72095309588
:1011A0008091140290911502822393230E949F083C
:1011B000089521E030E002C0220F331F8A95E2F744
:1011C0008091140290911502822793270E949F0814
:1011D00008952091140230911502822B932B0E94C6
:1011E0009F080895209114023091150282239323C1
:1011F0000E949F08089520911402309115028227C1
:1012000093270E949F0808950895262F277091E044
:1012100001C0990F2A95EAF723E0769567952A95FC
:10122000E1F7660F771F660F771FFA01E60FF71FCA
:1012300050E040E0682F70E08191DF0111979B0141
:10124000042E02C0369527950A94E2F72170219565
:101250002827292328272C934F5F5F4F44305105BF
:1012600059F70895A82FA77023E0969587952A959A
:10127000E1F7880F991F880F991FFB01E80FF91FED
:1012800050E040E080E0219130E00A2E02C0369527
:1012900027950A94E2F721703327042E01C0220F0C
:1012A0000A94EAF7822B4F5F5F4F4430510559F79C
:1012B0000895262F953070F48F3060F4682F70E019
:1012C0008FE0989F600D711D11244CEE51E0822F2C
:1012D0000E9405090895292F953068F48F3058F43D
:1012E00090E06CEE71E03FE0239F800D911D112492
:1012F0000E943209089580E00895B0E0A0E0E3E89C
:10130000F9E00C94842D7C010091140210911502D7
:101310008091160290911702082B192BCFE0D0E094
:10132000CC24C394D12CBC2EC6010C2E02C0880F35
:10133000991F0A94E2F780239123892B49F421977E
:1013400090F7B12C8B2DCDB7DEB7E9E00C94A02D32
:10135000B7018C2F0E94A810019789F3F3CFCF9388
:10136000DF93EC010E947D09BE010E94A810DF916D
:10137000CF9108951F93CF93DF93EB019091EB01F1
:10138000992339F0CB010E94AF09DF91CF911F91D2
:101390000895882369F0CB010E947D09182F682FDA
:1013A000CE010E945909BE01812F0E94A810EDCFE5
:1013B000CB010E946B09182FF6CF1F93CF93DF93B9
:1013C000C091180217E0809119028C1304C0DF91BC
:1013D000CF911F910895D0E01C9FF0011D9FF00D4B
:1013E0001124E65EFD4F2081318142815381648169
:1013F000758186810E9465082196C770E4CF20918F
:101400005202309153024091540250915502609122
:10141000560270915702809158020E946508089503
:10142000CF93DF9380915802807F09F04DC0809167
:101430005702882309F448C0E0911802509119021C
:10144000C0915302D09152026091540270915502A2
:1014500047E05E17C9F18E2F90E0E49FF001112460
:10146000E65EFD4F2481222391F1489FF001499FC0
:10147000F00D1124DF01A65EBD4F11962C9111973E
:101480002C1325C02C912D1322C015962C91159745
:1014900021111DC012962D913C91261B370B283C23
:1014A0003105A8F4809158028F70806180935802B2
:1014B000E05EFD4F80818F708061808382E592E0E5
:1014C0000E94F5070E94DD09DF91CF910895FC018C
:1014D0003196E770BECF482F2091180290911902E3
:1014E00057E0291302C080E0089530E0529FF001D8
:1014F000539FF00D1124E65EFD4F8181681306C0F5
:101500008081481303C085818111EECF2F5F3F4F4B
:101510002770E7CFA4E1B0E0E0E9FAE00C94812D78
:101520008C0186E0F801DE011F9601900D928A95EC
:10153000E1F7F8018481E58092E5A92E92E0B92EC9
:101540009091560291111FC08823D1F0EE20A9F08E
:10155000C8010E944E08F82E882379F087E0F80130
:10156000D50101900D928A95E1F7C5010E94B7045B
:101570000E94100A0E94FF095FC0C8010E94F5077F
:10158000FF24F39459C0C080D18082809380F09072
:1015900057022091540230915502A401421B530B73
:1015A000FF2009F4F9C0483C510508F0A7C0882382
:1015B00009F442C09091530280915802282F207F55
:1015C00009F05CC09D1116C090915202C91212C060
:1015D000E1104EC08F708061809358020E94FF0915
:1015E00082E592E00E94F50780915802F801868317
:1015F000F12C22C0E1103CC06D2D8C2D0E946B0A95
:101600006D2D8C2D0E946B0AE82E8111F1CFCF86B3
:10161000D88A8F8598890E94AF09292F22952F702B
:10162000243078F49F702230A8F09923B9F0F801A3
:101630009681907F99F4FE2C8F2D6496ECE00C94AB
:101640009D2D2A5F2F70223068F0C8010E94F50797
:10165000EF2CF1CF992311F0882369F3805E883055
:1016600050F3F3CF803F38F3815F833070F7E3CFDF
:1016700080915802816080935802BACF9D1113C0A7
:1016800090915202C9120FC0E1100DC08683C801AB
:101690000E94F50787E0F801A2E5B2E001900D9203
:1016A0008A95E1F767CFC8010E944E08882309F4A4
:1016B00064CFEE2009F461CF80915802803288F027
:1016C0002091520230915302398728879B868A865F
:1016D000909156029C871D868E87CE0108960E94A7
:1016E000F50787E0F801A2E5B2E001900D928A9536
:1016F000E1F70E94100A0E94FF0942CF9091580220
:10170000292F207FA1F4682D9A8A898AA6017A89D7
:101710009E2D0E945B0882E592E00E94F50787E01B
:10172000F50111928A95E9F70E94FF0961CF88239C
:1017300009F482CF809153028D1110C08091520222
:10174000C8120CC0E1100AC09683C8010E94F507B8
:1017500087E0F50111928A95E9F76ECFC8010E94E2
:101760004E08882309F409CFEE2009F406CF8091B2
:101770005802803208F4B5CF2091520230915302C2
:101780003A8329839C828B82909156029D831E828C
:101790008F83CE010196A3CF483C5105B8F588232D
:1017A00009F4EECEFE2CEE2009F4E7CE8091530230
:1017B0008D111EC080915202C8121AC08091580229
:1017C00080FD0DC0982F907F51F08683903F09F4E3
:1017D0005ECF982F907F905F8F70892B57CF87E0D7
:1017E000F801A2E5B2E001900D928A95E1F724CFCD
:1017F000C8010E944E08811174CF80915802816007
:1018000080935802C8010E94F50716CF682D9A8A66
:10181000898AA6017A899E2D0E945B0887E0F501DE
:1018200011928A95E9F7A6CEAEE0B0E0EAE1FCE0DD
:101830000C948A2D288739874A875B876C877D8738
:101840008E87CE0108960E948A0A8823B1F06C85A3
:10185000662341F0288539854A855B857D858E859F
:101860000E94650817E0809118029091190289136F
:101870003DC02E96E3E00C94A62D87E0FE0138963D
:10188000DE01119601900D928A95E1F78C858823EF
:1018900049F32091190230E0C90101968770992718
:1018A000409118024817190699F097E0929FD001CD
:1018B000939FB00D1124A65EBD4FFE01319601909D
:1018C0000D929A95E1F7809319020E94DD09CACF23
:1018D0000E942E08109219021092180287E0E2E589
:1018E000F2E0DF011D928A95E9F7BCCF819FC0012C
:1018F0001124865E9D4F0E948A0A882309F4B9CF7D
:10190000E09118021E9FF0011124E65EFD4F208138
:101910003181428153816481758186810E9465088D
:101920008091180290E001968770992780931802A1
:101930009ACF8091810286958695869508958091AB
:1019400081028770089590918102977081E009F477
:1019500080E008958091AD0208959091AD02892BA9
:101960008093AD02089580959091AD029823909355
:10197000AD0208951092AD0208959091AC02892BAA
:101980008093AC02089580959091AC029823909337
:10199000AC0208951092AC02089508950E94CD0CF7
:1019A000089590918202292F282331F08095892370
:1019B000809382020E94CE0C089508950E94DD0C4F
:1019C000089590918302292F2823281729F0982B16
:1019D000909383020E94DE0C089590918302292F38
:1019E000282331F080958923809383020E94DE0CA6
:1019F000089580918302882329F01092830280E069
:101A00000E94DE0C0895CF93C091AD028091AC028C
:101A1000C82B80918302882331F0C82B0E940524B3
:101A200081110E94F90C8C2FCF910895CF93DF93F1
:101A3000C0910601D09107010E94030D8883C091D7
:101A40000601D091070148E050E069E772E0CE015D
:101A50000E94512E892B59F088E0FE01A9E7B2E0DF
:101A600001900D928A95E1F7CE010E949423DF91B7
:101A7000CF910895CF93DF93C0910401D0910501D8
:101A80000E94030D8983C0910401D091050140E2B9
:101A900050E069E572E0CE010E94512E892B59F089
:101AA00080E2FE01A9E5B2E001900D928A95E1F78E
:101AB000CE010E949F23DF91CF91089580912F0145
:101AC000882339F08091390387FF03C00E943A0DC3
:101AD00008950E94160D089508950E946C0D0895B2
:101AE00090913A0392FF11C098E0899F90011124D0
:101AF000622B609381020E94B708809181028695D3
:101B0000869586950E946D0D08950E94B7080895E8
:101B10001092810280E00E946D0D089590918102E3
:101B20008095892380938102282F277069F4891773
:101B300059F090913A0392FF07C086958695869555
:101B40000E94C7080E94880D089590913A0392FB65
:101B5000222720F9281769F080FB92F990933A0325
:101B60008091390390913A030E94ED0D82E00E942A
:101B70008E0D089580913A0382FB882780F991E0C9
:101B800089270E94A50D089581E00E94A50D089562
:101B900080E00E94A50D08956FEF7FEF90E080E058
:101BA0000E94A92E089590E080E00E94752E21E009
:101BB000863E9E4F09F020E0822F089582E090E05B
:101BC0000E94672E089583E090E00E94672E08959A
:101BD00084E090E00E94752E0895BC0184E090E0BE
:101BE0000E94A92E0895AB01BC018FE090E00E94F5
:101BF0009D2E0895AB01BC0183E190E00E949D2ED3
:101C0000089560E070E0CB010E94FA0D089560E055
:101C100070E0CB010E94F30D0E94010E0895A8E030
:101C2000B0E0E5E1FEE00C948B2D66EE7EEF90E0F7
:101C300080E00E94A92E60E082E090E00E948B2E5E
:101C400081E090E0909317028093160261E083E0B8
:101C500090E00E948B2E60E074E184E090E00E94AE
:101C6000A92E60E086E090E00E948B2E60E087E085
:101C700090E00E948B2E40E050E0BA0188E090E0B6
:101C80000E949D2E60E084E290E00E948B2E60E036
:101C900087E190E00E948B2E60E08CE090E00E9453
:101CA0008B2E60E08DE090E00E948B2E19821A82CC
:101CB0001B821C821D821E821F82188648E050E013
:101CC00068E170E0CE0101960E947B2E40E050E07A
:101CD000BA0180E290E00E949D2E0E94070E289695
:101CE000E2E00C94A72D0E940F0E0895682F8EE05D
:101CF00090E00E948B2E0895A6E0B0E0E2E8FEE0BE
:101D00000C94892D0E94CB258C018091AE0290917C
:101D1000AF028017910781F019821A820E94CB25A9
:101D2000682F49815A81792F80E090E00E948704D2
:101D30001093AF020093AE022696E4E00C94A52D1A
:101D40000E94D7256093BE027093BF028093C002A9
:101D50009093C1026093BA027093BB028093BC025D
:101D60009093BD020895089508950E94B30E0895BA
:101D700008950E94B80E08958EE991E10E9409131A
:101D80000E94B40E0E94B50E089581E008950E944D
:101D9000C50E08950E94C50E0895089508950E94E5
:101DA000CD0E0E94CE0E08950E94D30D811102C067
:101DB0000E94730E0E94DE0D8093C2020E94E80D05
:101DC00090933A03809339030E940B1E0E94E30D07
:101DD00090E00E947B0880911402909115020E946D
:101DE0009C0808950E94C2250E9461120E94D40E90
:101DF0000E9459040E94AB1D0E94161B0E94691983
:101E00000E94B90E0895A6E0B0E0E9E0FFE00C946E
:101E10007F2D0E94C70E81110EC00E947C0E0E9471
:101E2000451A0E94F31C0E94E9210E946E04269626
:101E3000EEE00C949B2D0E94771220EB822E22E084
:101E4000922E640110E0F601E190F1906F01812F74
:101E50000E94A8111F5F153009F44BC0E816F9065F
:101E600091F38091C20281FD0E94B1110E94CA0EBD
:101E7000782E10E066246394812F0E94A8117C01C3
:101E8000F401A190B1904F018A159B0561F100E02A
:101E9000CC24C394D12CAE24BF24C5018C219D2118
:101EA000892BC1F07720B1F009831A830E94CB25DA
:101EB0009C838B836D8221E0C7018C219D21892B1E
:101EC00009F420E049815A816B817C818D81922FB8
:101ED0000E9487040F5FCC0CDD1C0F30F1F6F4017B
:101EE0003297F182E0821F5F153031F60E94A00E1A
:101EF00096CFE816F90609F0B4CF8FCF1F93CF9392
:101F0000DF930E94AD10EC01C11580E5D807F0F514
:101F1000C11580E4D80708F09CC0C03ED10520F56B
:101F2000CD3CD10508F082C0C83AD10578F4C53A55
:101F3000D10508F073C0C130D10519F1209709F11E
:101F4000C430D105F0F4D0E0C0E01BC0C33CD105E3
:101F5000D0F7C85AD0E0CC0FDD1FC759DE4F09902B
:101F6000D881C02DD4640DC0C11580E2D80708F017
:101F7000D1C0C11581E0D80708F05AC0C83ED105CC
:101F800010F7CE01DF91CF911F910895C03682E501
:101F9000D80718F5C03482E5D80708F06BC0C03206
:101FA00082E5D80708F05FC0C11582E5D80708F4BC
:101FB00097C02C2F2695269580E2289F900111240A
:101FC0008C2F8370C1E0D0E002C0CC0FDD1F8A955A
:101FD000E2F7C22BD32BDD68D4CFC03A82E5D80715
:101FE00060F4C03882E5D80708F459C0CF71D0E05A
:101FF000DC2FCC27C46FD06AC4CFC03C82E5D807A1
:1020000008F462C0C03E82E5D80708F09CCFDC2F00
:10201000CC27CC27DF71C06FD06AB3CFC55AD0E0D0
:10202000C156DE4FC881D0E0D064ABCFD065A9CF18
:102030008D2F0E944F11182FCE0199270E94AD10AD
:10204000C12FD0E0DC2FCC27CC27DF71C82BD92BB8
:1020500098CFCE0199270E94AD10CC27DF70C82BF6
:10206000D92BD06A8ECFCF71D0E0DC2FCC27C16FB7
:10207000D06A87CF2C2F26952695277080E2289F3F
:10208000900111248C2F8370C1E0D0E002C0CC0FEE
:10209000DD1F8A95E2F7C22BD32BDC6872CF2C2F81
:1020A00026952695277080E2289F900111248C2F79
:1020B0008370C1E0D0E002C0CC0FDD1F8A95E2F74B
:1020C000C22BD32BDA685DCF8C2F8F710E944F11FA
:1020D000C82FD0E0DC2FCC27CC27DF71D06251CFC6
:1020E0008C2F8F710E944F1155E0D695C7955A9548
:1020F000E1F7CF70D0E0DC2FCC27282F30E084FF31
:1021000005C044E0220F331F4A95E1F7C22BD32BC1
:10211000D06937CF8D2F8F710E944F11182FCE01AC
:1021200099270E94AD10C12FD0E0DC2FCC27CC27FF
:10213000DF71C82BD92BD2CF462F753030F46F30DA
:1021400020F4672F0E944203089590E080E00895F4
:102150000E949C100E947E0F089582389105B9F16B
:10216000B0F48133910509F47DC048F489329105BA
:1021700009F46DC08A32910509F47BC00895853356
:10218000910509F45FC08933910509F10895833EF3
:102190009105D9F138F4803E910529F1823E9105EF
:1021A00079F10895863E9105D9F1873E910509F4AC
:1021B0003EC0843E910541F520913A0321FF24C0A1
:1021C0008091390384FD19C087EE90E00895209135
:1021D0003903237009F05AC020913A0323FF14C039
:1021E00089E290E008952091390320FD38C03091B4
:1021F0003A0330FF09C024FF43C090E080E0089517
:102200002091390322FDF7CF08952091390322FD53
:102210003AC030913A0330FD39C024FFF5CFEDCFFD
:102220002091390323FFF0CF24FDE7CFCDCF2091BC
:10223000390323FD2EC030913A0331FFEECF84EEF7
:1022400090E008952091390325FFDECFC9CF20917A
:10225000390325FD21C020913A0323FFD5CF89E31F
:1022600090E0D2CF2091390326FFCECF8AE290E0D2
:1022700008952091390326FFC7CF81E390E00895A8
:1022800083EE90E0089582EE90E0089580EE90E075
:10229000089586EE90E0089585E390E0089590918A
:1022A000390392FF10C041E0282F2471243009F037
:1022B00040E031E0282F2871283009F030E0431742
:1022C00011F02CE0822793FF10C041E0282F2471E9
:1022D000243109F040E031E0282F2871283109F03D
:1022E00030E0431711F02CE0822730913A0330FFA1
:1022F00010C051E0282F2171213009F050E041E059
:10230000282F2871283009F040E0541711F029E0F7
:10231000822731FF10C041E0282F2171213109F0BF
:1023200040E031E0282F2871283109F030E04317D0
:1023300011F029E0822794FD877E089580E00895BA
:1023400008950E94A011089508950E94A41108956F
:10235000E82FF0E0EE0FFF1FEB5BFC4F80819181D7
:102360000895089580EA8A95F1F7089500C00895C8
:102370000E94B2110895F894E82FE295EF70F0E012
:1023800031A1282F2F7081E090E001C0880F2A959D
:10239000EAF7982F9095932391A392A1892B82A37A
:1023A000789408950F931F93CF93DF93C1EBD1E0FF
:1023B00089918F3F11F00E94BB1181E0C63BD80785
:1023C000B9F7C2EAD1E001EB11E089918F3F11F03A
:1023D0000E94BB110C171D07C1F7DF91CF911F9110
:1023E0000F910895AF92BF92DF92EF92FF920F93F9
:1023F0001F93CF93DF938C01D62EC62FD0E0CE0152
:102400008F549E4F7C01FC0120812F3F09F44CC06A
:10241000F894E22FE295EF70F0E031A12F7081E0A7
:1024200090E001C0880F2A95EAF7932F982B91A38B
:1024300092A18095892382A378940E94B611E2EA42
:10244000F1E041E050E0B12CA12C21912F3FB1F1FE
:10245000A22FA295AF70B0E090968C9190E02F7073
:1024600002C0959587952A95E2F780FD27C0CA019D
:10247000A82AB92A440F551F81E0E13BF80729F744
:10248000F70180818F3F11F00E94BB1161E0A11420
:10249000B10409F460E08D2D0E94B811CC0FDD1F4E
:1024A000C00FD11FB982A882DF91CF911F910F91E8
:1024B000FF90EF90DF90BF90AF90089590E080E0A4
:1024C000D7CF0E94D2118AE0E5E4F3E0DF01982F34
:1024D0001D929A95E9F7EBE3F3E0DF011D928A95EF
:1024E000E9F785E00E94B2120E94A1110895AAE0C6
:1024F000B0E0EDE7F2E10C94882D8E010F5F1F4FE5
:102500008AE0F80111928A95E9F7F12C6F2DC80144
:102510000E94F211F394F5E0FF12F8CF4AE050E088
:10252000B8018BE393E00E94512E21E0009709F45B
:1025300020E0892B41F08AE0F801ABE3B3E00190A1
:102540000D928A95E1F745E065E473E08BE393E053
:102550000E94B312182F0E94A511812F2A96E5E040
:102560000C94A42D0895B0E0A0E0E9EBF2E10C9406
:10257000852D6C017B01042FC22F222379F081E08D
:102580008093C5020E94CB259093C4028093C3021E
:1025900080E0CDB7DEB7E8E00C94A12DD091C50264
:1025A000DD23B1F38091C3029091C4020E94E32520
:1025B000059770F310E0000F111FA801B601C701C5
:1025C0000E94512E892B31F0A801B601C7010E944B
:1025D0005E2ECD2F1092C5028C2FDBCF0E94A62736
:1025E0000E94F20E0E94B32708950E94B8270E940D
:1025F000030F0E94D22708950E9464250E948C2711
:102600000E94BC0E0E94EE120E94F5120E94CF0E94
:10261000FBCF9093E5018093E4010895EF92FF9240
:102620000F931F93CF93DF93EB01E82FD1110EC0CF
:10263000442321F0F0E0EE58FC4FE4916E2F7E2F02
:102640008E2FCDB7DEB7E6E00C94A32D0D2F10E052
:10265000282F30E0442329F02E583C4FF9012491D3
:1026600030E0F6E0CF9FC0011124EFEFF0E0BF01B2
:102670000E94FA2CAB018C2F90E0880F991FA5E5E2
:10268000A49FB001A59F700D1124861B970B982F56
:10269000990F980FBF01601B710B629FD001639F60
:1026A000B00D729FB00D11248B2F9D9FB00111248E
:1026B000672F7727EF01C61BD70BBE01629FE00192
:1026C000639FD00D729FD00D11247F01E91AF1088C
:1026D000E09EB001E19E700DF09E700D1124672FF9
:1026E0007727E61BF70BE29F8001E39F100DF29F17
:1026F000100D1124E12F722F4230510599F048F44A
:102700004115510569F04130510581F0EB2F8D2FB6
:1027100007C04430510569F080F046305105B1F7EB
:102720006E2F8FCFE22F7B2F812FFACFE22F7D2FBD
:10273000F7CFEB2F822F712FF3CF7B2F822FED2F2F
:10274000EFCF41E00E940E13089508950E94A11357
:102750000895CF93DF93762FE901682F842F0E948D
:10276000A613798368838A83DF91CF91089580913E
:102770004F03982F9C7F29F48370846080934F03CC
:1027800008958C3AE8F38370886AF8CFB0E0A0E04F
:10279000ECECF3E10C94852D88E090E00E946F2E24
:1027A0006B017C0184E290E00E94672E282F30E0CC
:1027B00040E050E060E070E080E090E000E20E94E5
:1027C000B22DB22FA32FF42FE52FD62FC72F9701AD
:1027D0008601BC29A12BFE295E2F532B2B2F3A2FCC
:1027E0004F2F6D2F7C2FCDB7DEB7E8E00C94A12DD5
:1027F000B0E0A0E0EEEFF3E10C94812D49015A0125
:102800006B017C010E94B7138401A4016A2D7B2D0A
:1028100088E090E00E949D2E94014A2D5B2DB60128
:10282000C70100E20E94CD2D622F84E290E00E9459
:102830008B2ECDB7DEB7ECE00C949D2DEFE4F3E0EA
:1028400085E0808311828FEF828383831482758178
:1028500025E030E04FEF5FEF60E0868197810E94D6
:10286000F813089580914F0380FF03C086958695E5
:10287000089580E0089590915303933018F49F5F7A
:1028800090935303882391F020914F03309150038C
:10289000409151035091520360915303709154033E
:1028A00080915503909156030E94F813089581E09A
:1028B0000E943B14089590915303992319F091506D
:1028C00090935303882391F020914F03309150034C
:1028D00040915103509152036091530370915403FE
:1028E00080915503909156030E94F813089581E05A
:1028F0000E945B14089560910C0180914F0380FF4A
:102900000FC070E080910B0123E0829FC001112471
:10291000E091E101F091E201895A9C4F09950895F7
:1029200080910D0190910E0123E0829FF00111240E
:10293000E95AFC4F891728F71182108212828F5FA3
:102940003396F8CF90914F0390FF0EC090910D01F8
:1029500020910E0133E0939FF0011124E95AFC4FBE
:10296000921718F00E947B1408958183608342833C
:102970009F5F3396F5CFA3E0B0E0E1ECF4E10C9477
:102980008B2D90914F0390FF0AC09E012F5F3F4F08
:102990000E94A9134B8169818A810E94A214239607
:1029A000E2E00C94A72DCF93DF93EC01EC81F0E0F3
:1029B000E351FE4F4491EFE4F3E0628181810E9494
:1029C000BB148C818F5F8C83DF91CF910895CF935F
:1029D000DF93EC01EFE4F3E0438162818C810E949C
:1029E000BB148C818F5F8C83DF91CF910895A3E01E
:1029F000B0E0EDEFF4E10C94892D8C018091C602DA
:102A000081110AC09E012F5F3F4F4FEF6FEF0E9471
:102A1000A9138A818093C602F8016481613069F04C
:102A20008091C60240E0662361F040E0623011F41C
:102A30004091C60280E060E004C06091C60240E0C0
:102A400080E00E94A214F801848190E0019663E086
:102A500070E00E940E2D84832396E4E00C94A52D53
:102A6000A3E0B0E0E6E3F5E10C94842D082FD62E28
:102A7000F42EC22E90914F0390FF2FC0E92FE695C0
:102A8000E695AE2FB0E0AA54BE4F8C9180930C0314
:102A90009C7F943031F59E012F5F3F4F802F0E9425
:102AA000A9134B8169818A810E94A214009350036B
:102AB000D0925103F0925203CC2079F020914F0331
:102AC0006091530370915403302F4D2D5F2D8091F1
:102AD0005503909156030E94F8132396E9E00C9455
:102AE000A02D823019F4F0905203E0CF863019F413
:102AF00000915003DBCF8930D9F38931B9F6E95120
:102B00006E2F6170B62EE695F0E0E351FD4F149103
:102B1000E12C60910F01E61618F00E947B14C6CFDD
:102B2000E19EC001112470E00E94FA2C802FB110A8
:102B300014C0860F20910D01622F6E0D7727771F2D
:102B40009B01220F331F260F371F295A3C4F4F2D51
:102B50006D2D0E94A913E394DCCF861BEBCFEFE42D
:102B6000F3E09181282F438162818CE0890F0E94DC
:102B70003015089581E00E94AF150895EFE4F3E069
:102B80009181282F4381628184EF890F0E94301543
:102B9000089581E00E94BE150895EFE4F3E062819C
:102BA00029E1620F08F46FEF282F438181810E9491
:102BB0003015089581E00E94CD150895EFE4F3E00B
:102BC000628129E1621B08F460E0282F4381818142
:102BD0000E943015089581E00E94DE150895EFE40B
:102BE000F3E043812CE0420F08F44FEF282F62817D
:102BF00081810E943015089581E00E94EF150895AB
:102C0000EFE4F3E043812CE0421B08F440E0282F7E
:102C1000628181810E943015089581E00E94001632
:102C2000089520E00E9430150895EF92FF921F93BF
:102C3000CF93DF93EC0110E0EE24EA94F12C609145
:102C40000F01161770F00E947B149A818C8190FFFF
:102C500027C08F5F8C83DF91CF911F91FF90EF9002
:102C6000089520910D01422F410F5527551FCA018C
:102C70009A01220F331F280F391F295A3C4F70E049
:102C8000C7010E940E2D962F8C81409152036091B6
:102C90005103199F800D11240E94A9131F5FCFCFEC
:102CA0008150D8CFB0E0A0E0E8E5F6E10C94832DA8
:102CB000FC0182810FEF80FF01E010E04CE0A42EC8
:102CC00080910F01181798F00E947B148091C80220
:102CD000013009F04FC0811102C080910F01815075
:102CE0008093C802CDB7DEB7EAE00C949F2DC09167
:102CF0000D01C12ED12CCC0DDD2DD11DCE01880FA3
:102D0000991FC80FD91FC95ADC4F198218821A821D
:102D100034E0E32EF12CB12C8091C8028B0D8D3064
:102D20001CF16A2D0E94EC2C892F082E000C990BA7
:102D3000C816D90691F4809152038E9DA0018F9DF3
:102D4000500D112455954795559547959E016091D5
:102D50005103809150030E94A913B00EF1E0EF1AC5
:102D6000F108D1F61F5FACCF87FFDFCF90910F0145
:102D7000890FDBCF90E0019660910F0170E00E9417
:102D80000E2DAECF0F931F93CF93DF9380910D0144
:102D900090910E0123E0829FF0011124E95AFC4F2B
:102DA000891740F1C0E0D3E060910F01C61740F1F0
:102DB0000E947B14209109018091C702820F8093A9
:102DC000C70290910A01920F90930A01191654F4C8
:102DD000082E000C990B40910F014150550B8417A0
:102DE00095071CF0219520930901DF91CF911F9148
:102DF0000F9108951182108212828F5F3396D0CF87
:102E00000C2F10E070E0C8010E940E2D20910D01E2
:102E1000820F482F50E02091C702022E000C330B86
:102E200002171307BCF020910A01022E000C330B8D
:102E3000201731077CF08D9F90011124295A3C4FB7
:102E40004091520360915103809150030E94A91355
:102E5000CF5FAACFFA01EE0FFF1FE40FF51FE95A6B
:102E6000FC4F118210821282F3CFB0E0A0E0EBE3BE
:102E7000F7E10C94812DEC014C81042F10E09801B6
:102E8000D8010E94522D9B01AC010E94682D4B017C
:102E90005C01E0E2F0E0E01BF10BA5E5B0E0AC0185
:102EA0009B010E94682D6B017C019F01DF010E9444
:102EB0004A2D9B01AC010E94732D9B01AC01280D92
:102EC000391D4A1D5B1DC701B6010E94222DF22E3D
:102ED000822F90E039E23F1520F143E0249F9001DA
:102EE000112435952795122F109500E085E5E82EE1
:102EF000EF1880910F01081718F10E947B149C8134
:102F000081E0992319F0903219F48FEF8093080132
:102F100080910801890F8C83CDB7DEB7ECE00C946B
:102F20009D2D25E530E0B901681B790B9B01220F2F
:102F3000331F260F371F37FFD4CF2F5F3F4FD1CF1F
:102F40008E2D01FD8F2D20910D01622F600F7727AF
:102F5000771F9B01220F331F260F371F295A3C4F23
:102F6000412F609151030E94A9130F5FC2CF0F93AD
:102F70001F93CF93DF93EC0110E000E090910F01DD
:102F80009017110609F06CF40E947B148C8190E07C
:102F90000196817099278C83DF91CF911F910F91BA
:102FA000089520910D01A801420F511D9A01220F91
:102FB000331F240F351F295A3C4F4C816091510318
:102FC0008091500396959017110651F04CF04423D0
:102FD00049F0409152030E94A9130F5F1F4FCECFBB
:102FE0004423B9F340E0F7CFB0E0A0E0EAEFF7E127
:102FF0000C947D2DFC016280448081E08483EDEEA1
:10300000F1E07490ECE6F2E0E491C0915203C695D1
:10301000C158D0E0CC0FDD1FCD2FDD27812C75E00E
:10302000972EAA24AA94B12C55245A94E719EE2E6F
:10303000F12C80910F01881638F00E947B14CDB7D7
:10304000DEB7E0E10C94992DC82CD12C82E08615D6
:1030500068F09C9CF0019D9CF00D1124E753FD4FFE
:10306000809150038083809151038183411023C05C
:103070009C9CF0019D9CF00D1124E753FD4F1382A1
:10308000128220910D01C601820F911D9C01220F19
:10309000331F280F391F295A3C4F9C9CF0019D9CDF
:1030A000F00D1124E753FD4F4281618180810E9420
:1030B000A9138394BECF9C9C80019D9C100D11246C
:1030C00007531D4FF80183818823F1F081508383DA
:1030D000859DC0011124648170E00E94FA2CFB01DF
:1030E000FF27E351FE4F8491E82FE719E59DC001CA
:1030F0001124B7010E94FA2C80915203689FB001FD
:103100001124F8017283BDCF0E94342EB5010E94B4
:103110000E2D8C179D070CF0B4CFF2E0F61598F445
:103120000E94342EB5010E940E2DF80180830E946A
:10313000342E209151032695622F70E00E940E2DAF
:10314000280FF80121839C9CF0019D9CF00D112417
:10315000E753FD4F128280915203893C58F088EC6E
:103160009C9CF0019D9CF00D1124E753FD4F84833E
:10317000838387CF8431A0F784E1F2CFEFE4F3E0DB
:1031800020812E7F2083318142815381648175812A
:10319000868197810E94F81310920D030E947B1480
:1031A000089560914F036695669570E04BE050E09E
:1031B00080E191E00E94442E892B19F481E08093F4
:1031C0000D030E94CB259093060380930503089579
:1031D00090914F0390FF34C09370811132C094607E
:1031E00090934F03662391F020914F033091500349
:1031F00040915103509152036091530370915403D5
:1032000080915503909156030E94F81360914F03EB
:103210006695669570E04BE050E080E191E00E9499
:10322000442E892BB1F010920D0381E080930803A6
:103230004091520360915103809150030E941116F6
:1032400008958B3210F0986ACBCF880F880F982B97
:10325000C7CF0E94D118E9CF682F90914F03969560
:10326000969581E0890F8B3208F081E00E94E81882
:10327000089581E00E942C190895682F90914F03C2
:10328000969596958FEF890F09F48AE20E94E818C7
:10329000089581E00E943D19089561E00E94E818B8
:1032A0000895EFE4F3E080818160808386958695C0
:1032B0000E944D19089580914F0380FF03C00E9422
:1032C000BE1808950E945119089560E00E94E81800
:1032D000089580910B03811137C00E94C61320937B
:1032E0004F03309350034093510350935203609324
:1032F00053037093540380935503909356032C7F8C
:10330000A1F40E941E140E94C61320934F03309311
:1033100050034093510350935203609353037093AF
:10332000540380935503909356030E94B713109251
:103330000D0380914F0380FF04C0869586950E94FF
:10334000651981E080930B0308950F931F93CF932A
:10335000DF9380910D038823C1F180910C03E091EC
:103360004F03E695E695E81BE0930703823091F55D
:10337000F0E0E751FE4FE491CE2FD0E003ED14E1F1
:1033800080910803882361F0109208030E94CB25E6
:10339000909306038093050310920A031092090389
:1033A0000E94CB25E0910503F09106038E1B9F0B35
:1033B0008F3F9F4750F4EC0FFD1FF0930603E093FF
:1033C000050385E093E0F8010995DF91CF911F9106
:1033D0000F910895863049F4F0E0EA51FE4FE491F0
:1033E000CE2FD0E007EE14E1CBCF893051F4E69533
:1033F000F0E0ED51FE4FE491CE2FD0E005E116E173
:10340000BFCF8F3051F4E695F0E0E052FE4FE491EB
:10341000CE2FD0E002E516E1B3CF853149F4F0E0DC
:10342000E352FE4FE491CE2FD0E002EC16E1A8CF9C
:10343000C8E2D0E005E317E1883109F4A1CF833277
:1034400039F4EBEDF1E0C591D49107EF14E198CF99
:10345000C4EFD1E007EB17E1843209F491CFC0ED5E
:10346000D7E005EA13E1853209F08ACF8E2F63E0B9
:103470000E94E02CE92FF0E0E852FE4FE491CE2FBD
:10348000D0E004EF17E17CCF08950E94A5190895BC
:10349000FA01811101C0FB0109950895CF93DF93D3
:1034A000C82FD62F0E9432148C1748F00E94321475
:1034B0008D1728F40E943919DF91CF9108958C2F30
:1034C0000E944D19F9CF1F93CF93DF93EC01FB01BD
:1034D0001581111110C00E94AA0C8272FE01E052E7
:1034E000F847E531F10508F05EC0E451F14D0C9468
:1034F000442D0E945B19812FDF91CF911F91089578
:1035000049E459E169E379E10E94481AF4CF49E3BB
:1035100059E169E479E1F8CF49EC55E16AEB75E1ED
:10352000F3CF4AEB55E169EC75E1EECF4BEE55E197
:103530006AED75E1E9CF4AED55E16BEE75E1E4CF57
:103540004DE056E16CEF75E1DFCF4CEF55E16DE0FA
:1035500076E1DACF47E754E167E574E1D5CF47E597
:1035600054E167E774E1D0CF81E00E944D19C3CFE9
:1035700065E082E00E944E1ABECF68E086E0FACF96
:103580006EE089E0F7CF64E18FE0F4CF67E185E199
:10359000F1CF88E1EACF62E289E1ECCF83E2E5CFC7
:1035A0006AE285E2E7CF11E0A6CF86E090E00E94D4
:1035B000672E0895682F86E090E00E948B2E089574
:1035C00085E380937B030E94DA1A089580917B0340
:1035D000869586958695089580917B0381FD07C029
:1035E000826080937B030E94DA1A0E94F41C089583
:1035F00080917B0381FF07C08D7F80937B030E94B6
:10360000DA1A0E94FE1C089580917B0381FF03C09B
:103610000E94F81A08950E94EC1A089580917B0385
:1036200086958170089580911B0108950E94D51A96
:1036300080937B0382FF0E94E01A80917B03883392
:1036400020F08770806380937B0390917B03892FA8
:10365000817090FF04C0892F8695869586950E947B
:10366000B21C089580917B03982F96959695969518
:10367000963040F49F5F990F990F990F8770892BAF
:1036800080937B0380917B03816080937B030E9406
:10369000DA1A80917B038695869586950E94B21CE6
:1036A000089580917B03982F987F79F088508093BC
:1036B0007B03887F91E009F490E080917B0390FB8D
:1036C00080F980937B030E94DA1A80917B038695B0
:1036D000869586950E94B21C089580917B0380FD9B
:1036E00013C0816080937B03813019F489E080935B
:1036F0007B0380917B030E94DA1A80917B0386957D
:10370000869586950E94B21C089580917B0380FF68
:1037100008C08E7F80937B030E94DA1A80E00E94AB
:10372000B21C089580917B0380FF03C00E94851B1B
:1037300008950E946D1B089590917B03892F8695B3
:10374000869586958F5F8F7197708730E0F4880F2C
:10375000880F880F892B80937B0380917B03887F60
:1037600091E009F490E080917B0390FB80F98093D5
:103770007B030E94DA1A80917B0386958695869555
:103780000E94B21C089590937B03E7CF873008F026
:1037900086E090917B039770282F220F220F220F33
:1037A000922B90937B03987F21E009F420E0909185
:1037B0007B0320FB90F990937B030E94B21C089539
:1037C0000E94C61B80917B030E94DA1A0895FC01B7
:1037D000DB0115968C918823F1F0F857E730F1055D
:1037E000D8F4EF5FF04D0C94442D86E00E94E01B6E
:1037F00080E0089580E0FACF0E94511BF9CF0E942B
:10380000321BF6CF0E94921BF3CF0E949C1BF0CF7D
:103810000E94041BEDCF81E00895859A8D9A08954A
:103820008D9808958D9A0895B0E0A0E0EAE1FCE15A
:103830000C94812D8C0180918600909187006CE022
:1038400070E00E94FA2C6017710758F0C80169E017
:1038500070E00E94FA2CCB01CDB7DEB7ECE00C94FF
:103860009D2D8091860090918700E0908600F090D9
:103870008700C0908600D0908700C6E0D0E0BE01EF
:103880000E94FA2C30E020E0060F171F211D311D89
:103890004801590185E0880C991CAA1CBB1C8A951B
:1038A000D1F7C701BE010E94FA2CF12CE12CA7012F
:1038B0009601260F371F411D511DC501B4010E94FD
:1038C000222D69017A01E0918600F0918700CA01FA
:1038D000B9010E94D02C9B01AC01DF010E94682D30
:1038E0009B01AC01C701B6010E94D02C2FE0969538
:1038F0008795779567952A95D1F700918600109165
:10390000870030E020E0061717072807390708F07E
:10391000A2CF60918600709187009DCF1F920F9279
:103920000FB60F9211242F933F934F935F936F9392
:103930007F938F939F93AF93BF93EF93FF930E94D7
:10394000121CFF91EF91BF91AF919F918F917F9149
:103950006F915F914F913F912F910F900FBE0F90FC
:103960001F901895CF93C82F873058F581112AC022
:103970008091880090918900892B51F080916F008F
:103980008D7F80936F0080916F008E7F80936F009A
:103990000E94121CA0918600B09187002C2F30E06D
:1039A0000E94522D26E030E040E050E00E94222D9F
:1039B000C9010E94141C9093890080938800CF91C4
:1039C0000895C6E08091880090918900892B11F7B5
:1039D00080916F00826080936F0080916F008160A2
:1039E00080936F00D7CF08951092100310920F03A9
:1039F0001092110381E080930E03089510920E033C
:103A00000E94E61A0E94B21C0895EF92FF920F9353
:103A10001F93CF9380911C01823049F08F5F809378
:103A20001C01CF911F910F91FF90EF90089581E0BD
:103A300080931C010E94131BC82F00910F0310914B
:103A400010030F5F1F4F0E94131B28E7829FB001D6
:103A50001124C8010E94FA2C9093100380930F0345
:103A6000C29FB0011124660F672F661F770B7195F7
:103A70000E94FA2C67FD6FE780911103823029F4D0
:103A8000603439F410920E0304C0813011F46F37A2
:103A9000C9F3E62FF0E0EE50FD4FC491E0908600B0
:103AA000F09087000E94E61A182F2C2F30E0D701E3
:103AB0000E94522D2FEF30E040E050E00E94222D76
:103AC000C90166E070E00E94FA2C169FC001179FA2
:103AD000900D11240E94141C9093890080938800FB
:103AE000A0CF1F920F920FB60F9211242F933F93E6
:103AF0004F935F936F937F938F939F93AF93BF93F6
:103B0000EF93FF9380910E0381110E94051D209178
:103B100088003091890080918600909187006AEF3B
:103B200070E00E94FA2C6B5F7F4F6217730710F4EE
:103B30000E94101CFF91EF91BF91AF919F918F91C7
:103B40007F916F915F914F913F912F910F900FBE99
:103B50000F901F9018950E940D1C82E080938000AA
:103B600089E1809381008FEF9FEF9093870080938E
:103B700086000E94161B0E940E1B81110E94F41CDD
:103B80000895869A41B34F7B51B35064EFB7F894D0
:103B90009B01220F331F260F371F280F391F2817AD
:103BA000390741F4EFBF8FE594E00197F1F700C0CA
:103BB00000000895DC016D91CD0178E051BB00005B
:103BC00000C067FF41BB660F000000C000C000C01E
:103BD00041BB00C07A9591F7E2CF0E94CC0D0895C9
:103BE00080E00E94A811817008950E9477122FEF43
:103BF00086E791E0215080409040E1F700C000004E
:103C00000E9477120E94F01D882321F00E94ED1D72
:103C10000E94162608950E94F51D0895EBEFE80F07
:103C2000EF3308F066C0F0E0E85FF04D0C94442DEF
:103C30000E94730E81E008958091C202807F80937C
:103C4000C20281E08093150308950E94BE03F2CF63
:103C50009091C202892F8E7F90FF81608093C20273
:103C600080FDE8CF817F8093C202E4CF9091C202B1
:103C7000892F8D7F91FF82608093C20281FFDACF0E
:103C80008091C2028160EFCF9091C202892F8B7F19
:103C900092FF84608093C20282FDF2CFCBCF9091DD
:103CA000C202892F877F93FF88608093C20283FDC1
:103CB000E7CFC0CF0E942E0890913903892F97FB40
:103CC00087F9805880933903B5CF81E090E00E9456
:103CD0007B080E942E08AECF895321E030E0A90175
:103CE00002C0440F551F8A95E2F7CA01F0CF8D51EB
:103CF000F4CF80E0089580E008950E947B1E08952F
:103D0000CF93C82F809115038130B9F0882331F00B
:103D10008230A1F11092150380E00DC00E94AA0C20
:103D20008232D1F78C2F0E947B1E81111BC08C2FF9
:103D30000E940E1E8170CF9108950E94AA0C8232BB
:103D400089F38C2F0E947D1E81110AC0C43199F025
:103D500060F4CB3029F0C03169F782E0809315031D
:103D600081E0E8CF81E090E0E5CFC93221F0C833AF
:103D7000B9F380E0DFCF10921503FBCFC93209F40D
:103D800040C0F0F4C431E9F1A8F481E0C73099F6FD
:103D90008093240184E1809323018AE080932201AF
:103DA0008EE18093210188E080931E0188E2809358
:103DB0001D0104C082EE8C0F8A3070F181E0BBCF10
:103DC000C03509F450C0B8F48AE0CF34B9F7E091B7
:103DD0001203F0911303309789F32081082E000C11
:103DE000990B820F911D8F3F910509F00CF43FC094
:103DF0008FEF8083E3CFC135C1F181E0C23539F364
:103E00009ACF809114038823C9F210921403109260
:103E1000130310921203D2CFCD51C0931403C330B9
:103E2000C9F048F4C13099F083E291E0C23051F01A
:103E300010921403C3CFC53099F078F08DE191E072
:103E4000C630B1F79093130380931203B7CF84E287
:103E500091E0F8CF82E291E0F5CF81E291E0F2CFFC
:103E60008EE191E0EFCF86EFB2CF8FEFB0CF97FF2B
:103E7000C0CF1082A3CFCF93DF93EB0186319C4755
:103E800011F50E94AA0C9D81992399F08A7A91E0FC
:103E900009F490E090931603811109C089E20E9411
:103EA000B0240E945E0D80E0DF91CF91089585E3FC
:103EB000F6CF80911603811104C089E20E94C724C5
:103EC000F0CF85E3FBCF81E0EFCFCF93DF93EC0121
:103ED000FB018581882309F4D2C09E01305723322B
:103EE000310508F0B2C00E94E80D90933A03809328
:103EF0003903FE01E150F047E232F10520F4E95BBD
:103F0000F04D0C94442D80913903816080933903E6
:103F100093C080913A03886080933A038DC080916A
:103F200039038260F3CF809139038460EFCF8091B1
:103F300039038860EBCF80913A038160EDCF8091A7
:103F40003A038260E9CF809139038061DFCF8091AD
:103F500039038062DBCF809139038064D7CF0E9420
:103F60002E08809139038068D1CF809139038C600D
:103F7000CDCF80913A038360CFCF809139038E7F7C
:103F8000C5CF80913A03877FC7CF809139038D7F5A
:103F9000BDCF809139038B7FB9CF80913903877F63
:103FA000B5CF80913A038E7FB7CF80913A038D7F52
:103FB000B3CF809139038F7EA9CF809139038F7D54
:103FC000A5CF809139038F7BA1CF0E942E088091CD
:103FD00039038F779BCF80913903837F97CF80916F
:103FE0003A038C7F99CF8091390382FB992790F90E
:103FF00021E0922790FB82F990FB83F987CF809193
:104000003A03982F909591708E7F892B90FB81F9C0
:1040100083CF90913903892F8F7B96FF806476CF71
:104020000E942E0890913903892F97FB87F98058B9
:104030006DCF81E00E94760E8091390390913A0312
:104040000E94ED0D0E942E0880E0DF91CF9108952F
:1040500080E0F0CF90913903892F8F7E94FF8061AB
:1040600055CF90913903892F8E7F90FF81604ECF7D
:1040700090913A03892F877F93FF88604DCF81E02D
:10408000E4CF282F35EB2303C001112497FF04C090
:1040900080589109892F089580589F4FFBCF8091B8
:1040A0001D0380FF0DC06091220170E0660F771F35
:1040B0006038710570F56115710569F1862F0895F5
:1040C00081FF07C06091220184E0689FB001112444
:1040D000EFCF6091220182FD0AC080911C038823EA
:1040E000A9F02091210160912201821710F088E04F
:1040F000ECCF869FC001112433E0880F991F3A95B9
:10410000E1F7622F70E00E940E2DD2CF68E070E0E0
:10411000D5CF8FE7089581E0089580911D0380FF3A
:104120000CC060911E0170E0759567957595679557
:104130006115710549F1862F089581FF06C06091D0
:104140001E0170E075956795F3CF60911E0182FDA9
:104150000BC090911B039923A1F060911D018091E8
:104160001E01961738F0682F70E06038710500F373
:104170008FE70895899FC001112470E00E940E2DE1
:10418000F4CF61E070E0D7CF81E0089590912003F3
:1041900020912103922B20912303922B2091220323
:1041A000922B31F098E090931C0391E090931B03C5
:1041B0008D3C31F40E944F20819580932103089516
:1041C0008E3C19F40E944F20F8CF8F3C31F40E94AE
:1041D0004F208195809320030895803D19F40E941B
:1041E0004F20F8CF893D29F40E948D20809322032F
:1041F00008958A3D21F40E948D208195F7CF8B3D53
:1042000031F40E948D2081958093230308958C3D85
:1042100019F40E948D20F8CF9FE2980F983070F427
:10422000815D990B21E030E001C0220F8A95EAF709
:1042300080911F03822B80931F0308958D3D31F4DD
:1042400080911D03816080931D0308958E3D21F4AC
:1042500080911D038260F7CF8F3DB9F780911D03D8
:104260008460F1CF409120038D3C59F4809121036B
:1042700087FF0DC01092210341110BC010921C0347
:1042800008C08E3C81F48091210318169CF34423CE
:1042900081F08091220390912303892B09F05AC069
:1042A00010921B0308958F3C49F447FFF0CF109202
:1042B0002003809121038111ECCFE0CF803D19F4E0
:1042C0001416ACF3E4CF90912203893D29F419161A
:1042D000F4F610922203DBCF8A3D19F497FFD7CF73
:1042E000F8CF909123038B3D29F497FFD0CF109204
:1042F0002303CDCF8C3D19F41916CCF3C8CF9FE220
:10430000980F983090F4815D990B21E030E0B9016D
:1043100002C0660F771F8A95E2F7CB0180959091D6
:104320001F03892380931F03B2CF8D3D31F4809109
:104330001D038E7F80931D03AACF8E3D21F48091B3
:104340001D038D7FF7CF8F3D09F0A1CF80911D0315
:104350008B7FF0CF08950E94CB259C019091200384
:1043600080912103982B21F030931A032093190395
:104370009091220380912303982B21F0309318030E
:10438000209317038EE193E00E94AD23089586E009
:10439000EEE1F3E0DF011D928A95E9F710921C032C
:1043A00010921B0310921D030895FC01828181115C
:1043B0000EC0838181110BC08481811108C091E0FE
:1043C0008581811101C090E0892F8170089581E07D
:1043D000FCCFA6E0B0E0EFEEF1E20C948A2D86E08F
:1043E000EEE1F3E0DE01119601900D928A95E1F77E
:1043F00010922003109221031092220310922303A3
:104400008B819C81892B89F08091190390911A03EB
:104410000E94E325AC0190911C039923C9F180917E
:1044200023018417150608F440C08D819E81892BD5
:1044300091F080911703909118030E94E325AC013D
:1044400090911B03992309F46AC080911F0184177E
:10445000150608F472C0BE016F5F7F4F8EE193E0D6
:104460000E94F824811105C08EE193E00E94D521BD
:1044700081110E94AB2186E0FE013196AEE1B3E0EE
:1044800001900D928A95E1F72696E3E00C94A62D13
:10449000209124018AE0289F9001112424173507D8
:1044A00020F69F5F90931C0302C09F3FD1F71B81B2
:1044B000112359F00E944F209FEF11160CF491E048
:1044C000899F802D1124809320031C81112359F092
:1044D0000E944F209FEF11160CF491E0899F802DD0
:1044E00011248093210380912003882309F49DCF18
:1044F00010912103112309F498CF0E9441208823B1
:1045000051F080932003812F0E944120882329F0BD
:10451000809321038ACF81E0F4CF81E0F9CF20910D
:1045200020018AE0289F900111242417350708F004
:1045300092CF9F5F90931B0302C09F3FD1F71D81D5
:10454000112359F00E948D209FEF11160CF491E079
:10455000899F802D1124809322031E81112359F0FD
:104560000E948D209FEF11160CF491E0899F802D01
:1045700011248093230380912203882309F46BCFB5
:1045800010912303112309F466CF0E944120882350
:1045900051F080932203812F0E944120882329F02B
:1045A0008093230358CF81E0F4CF81E0F9CF0F93BC
:1045B0001F93CF93DF93C42FD22FFC0185818823D3
:1045C000C9F0409326030E94CB2590932503809346
:1045D000240380E28C0F883040F4C77081E001C072
:1045E000880FCA95EAF70E94D805DF91CF911F91F5
:1045F0000F91089510912603141332C08091240363
:10460000909125030E94E325883C910548F5C0E27E
:10461000CD0F1D17B9F080E2810F883040F417707C
:1046200081E001C0880F1A95EAF70E94DF05C830C3
:1046300048F481E09D2F977001C0880F9A95EAF7A2
:104640000E94D805802F0E94CF05C83070F6D77021
:1046500081E001C0880FDA95EAF70E94DF05C5CF37
:1046600080E28C0F883008F6C77081E001C0880FA7
:10467000CA95EAF7F2CF0F93DB0188519C47873048
:104680009105A0F5FC01E759F04D0C94442D06E28C
:1046900021EE41EE6AE17CE7CD010E94D72280E065
:1046A0000F91089507E225EE45EE6BE17CE7F4CF2C
:1046B00006E221EE40EE68E17CE7EECF07E225EE70
:1046C00044EE69E17CE7E8CF06E221EE42EE6CE1E0
:1046D0007CE7E2CF07E225EE46EE6DE17CE7DCCF3A
:1046E00008E221E045EE6EE17CE7D6CF15968C918D
:1046F000882319F010922603D3CF81E0D1CF909375
:104700002C0380932B030895E0912B03F0912C034D
:10471000309729F00190F081E02D0995089580E00F
:1047200008950E9484230895E0912B03F0912C03B7
:10473000309721F00280F381E02D09950895E091F2
:104740002B03F0912C03309739F026E0DC012C93F9
:104750000480F581E02D09950895E0912B03F091F7
:104760002C03309739F022E0DC012C930680F7818E
:10477000E02D09950895A3E0B0E0E1ECF3E20C949C
:104780008B2D2091290330912A0328173907A1F096
:1047900090932A0380932903E0912B03F0912C033B
:1047A000309751F023E029839B838A830084F1852D
:1047B000E02DCE01019609952396E2E00C94A72DF9
:1047C000A3E0B0E0E6EEF3E20C948B2D20912703FA
:1047D0003091280328173907A1F09093280380937C
:1047E0002703E0912B03F0912C03309751F024E044
:1047F00029839B838A830084F185E02DCE01019675
:1048000009952396E2E00C94A72D209106013091A2
:1048100007012E5F3F4F80912F01882379F080910F
:10482000390387FF0BC020910401309105012E5FF1
:104830003F4F9EE180E0915018F4089596E0FACF42
:10484000F90141919F014423B1F38F5FF4CF882395
:1048500021F190912F01992311F19091390397FF44
:104860001EC0E82FE695E695E695EE31B0F420916E
:10487000040130910501E20FF32FF11D228130E098
:10488000877041E050E002C0440F551F8A95E2F75F
:104890002423352381E0232B91F480E00895209197
:1048A000060130910701F9013296285F3F4F91913F
:1048B000981721F0E217F307D1F7EFCF81E00895C1
:1048C0009C01FC0132969FEF80E04191461751F028
:1048D0009F3F19F4411101C0982F8F5F8630A9F7CF
:1048E0009F3F09F40895290F311D97FD3A95F9016D
:1048F00062830895FC01329608962191261303C025
:10490000DF0111971C92E817F907B9F70895E62F10
:10491000E695E695E695EE3168F4E80FF92FF11D7E
:10492000677021E030E001C0220F6A95EAF78281CA
:10493000822B82830895E62FE695E695E695EE3183
:1049400070F4E80FF92FF11D677021E030E001C02D
:10495000220F6A95EAF72095828128232283089501
:10496000682F80912F01882359F08091390387FFA8
:1049700007C080910401909105010E948724089549
:1049800080910601909107010E9460240895682F8C
:1049900080912F01882359F08091390387FF07C048
:1049A00080910401909105010E949B2408958091BB
:1049B0000601909107010E947A24089580912F01A9
:1049C000882379F08091390387FF0BC0E0910401BF
:1049D000F091050132968EE1DF011D928A95E9F78B
:1049E0000895E0910601F0910701329686E0F4CF38
:1049F000DC01FB0111969C9111978181981322C0D3
:104A000012968C911297882319F0928189131AC0FB
:104A100013968C911397882319F09381891312C0F0
:104A200015968C911597882319F0958189130AC0E2
:104A300014969C91992321F081E02481291303C0CD
:104A400080E001C081E08170089508950E942525CD
:104A50000895811106C081E080932D030E942625D0
:104A6000089582E0F9CF83E080932D030E942625EC
:104A700008950E942925089581E080932D030E94C6
:104A8000262508950E943C250895089508950E94C2
:104A900046250895089508950E9445250895CF93C9
:104AA0000E944A250E9477120E944B25C0E08C2F5D
:104AB0000E94A811892B31F4CF5FC530C1F780E087
:104AC000CF91089581E0FCCF85B7806885BF85B719
:104AD000806885BF08951F921FB61F9211248F937F
:104AE0009F93AF93BF9380912E03811113C0809148
:104AF0007C0390917D03A0917E03B0917F0341964A
:104B0000A11DB11D80937C0390937D03A0937E0330
:104B1000B0937F03BF91AF919F918F911F901FBE64
:104B20001F90189580918403843031F10E943204E3
:104B300010922E0388E190E020E40FB6F894A89537
:104B4000809360000FBE2093600083B7817F8460F4
:104B500083BF83B7816083BF7894889583B78E7F46
:104B600083BF0FB6F894A895809160008861809308
:104B70006000109260000FBE08950E942E080E94EF
:104B80003A04089582E084BD93E095BD9AEF97BD05
:104B900080936E0008952FB7F89480917C039091D4
:104BA0007D03A0917E03B0917F032FBF08952FB79F
:104BB000F89460917C0370917D0380917E039091C5
:104BC0007F032FBF08959C014FB7F89480917C0319
:104BD00090917D03A0917E03B0917F034FBF821B14
:104BE000930B089578941F921FB61F9211248F93F0
:104BF0009F93AF93BF9380917C0390917D03A0918D
:104C00007E03B0917F030196A11DB11D80937C03AB
:104C100090937D03A0937E03B0937F03BF91AF91E8
:104C20009F918F911F901FBE1F90189581E08093D8
:104C3000E00080E28093D8001092C9008FE19EE4EA
:104C40000197F1F700C0000087E090EBDC01809352
:104C50008D0390938E03A0938F03B093900388E10C
:104C60009CE00FB6F894A895809360000FBE9093D7
:104C70006000FFCF88E19CE00FB6F894A895809380
:104C800060000FBE90936000FFCF809137030895BE
:104C90009B01BA01909184039430E9F48F70809362
:104CA000E9009FEF8091E800915085FD06C085EDF9
:104CB0008A95F1F700009111F5CF8091E80085FF0A
:104CC0000AC050E040E0C9010E9449288091E800F4
:104CD0008E778093E800089543E050E0BC0182E0C5
:104CE0000E944826089546E050E0BC0182E00E9400
:104CF0004826089540E250E0BC0182E00E94482628
:104D00000895CF93DF93EC0148E050E0BC0181E0CF
:104D10000E94482688E0FE01AFE2B3E001900D92C8
:104D20008A95E1F7DF91CF910895809183038111F6
:104D300009C00E94D9290E94362A8091E20084602D
:104D40008093E20008951092830308950E943C2509
:104D500008956091800381E0611101C080E00E94AC
:104D6000332508959091840381E0943009F080E028
:104D7000609180030E943925089542E061EC81E052
:104D80000E94552942E261EC82E00E9455299091EF
:104D9000840381E0943009F080E0609180030E94F8
:104DA0002925089580918603833009F461C030F489
:104DB0008130D1F1823009F49EC008958A3009F41F
:104DC0008AC08B3009F46FC0893009F050C08091DF
:104DD0008503813209F04BC08091890390918A0349
:104DE000029708F044C08091E800877F8093E80034
:104DF0008091E80082FF37C09091F3008091F2002B
:104E0000029731F48091F100813011F0863021F465
:104E10008091F100809337038091E8008B77809335
:104E2000E8000E94892923C080918503813AF9F422
:104E30008091E800877F8093E800809189039091BA
:104E40008A03892B61F468E08FE293E070E00E94AE
:104E500098288091E8008B778093E800089560E0BF
:104E600090E080E0F3CF809184038111C1CF089559
:104E700080918503813AD9F78091890390918A03C3
:104E8000892BA9F78091E800877F8093E8008091C3
:104E9000E80080FFFCCF80912F018093F10080918A
:104EA000E8008E77BCCF80918503813201F7809135
:104EB000890390918A03892BD1F68091E800877F3E
:104EC0008093E8000E9489298091870380932F01B5
:104ED0000E942E08089580918503813241F68091C9
:104EE000E800877F8093E8000E94892980918803E9
:104EF00080933803089580918503813A09F0B7CFF4
:104F00008091E800877F8093E8008091E80080FF2F
:104F1000FCCF80913803C1CF84B7877F84BF0FB6A1
:104F2000F894A89580916000886180936000109249
:104F300060000FBE80E890E00FB6F89480936100A7
:104F4000909361000FBE0E94422508950E94D929C6
:104F50000E94362AE2EEF0E08081846080837894BB
:104F60000E94B52C089585E291E00E947F23089568
:104F700080918403853031F480918403853019F069
:104F80000E94BD2508950E94922580918203882366
:104F900099F30E944F25882379F30E9433280E94B9
:104FA0002E08EACF08959A0140918B0350918C030B
:104FB0000E94DB270895492F55274330510519F1E9
:104FC00068F44130510509F444C04230510509F4F8
:104FD00045C090E080E050E040E025C041325105FE
:104FE00049F142325105A9F784E490E043E955E0E4
:104FF00061157105C1F086EB90E04DED54E0613034
:10500000710589F0E6CF99278130910581F00097ED
:1050100029F00297F1F6E2E7F4E002C0ECE8F4E0F0
:10502000849190E0AF01F901518340830895EEE748
:10503000F4E0F6CF89E090E042EA54E061157105B2
:1050400091F389E090E04BEB54E06130710559F346
:10505000C0CF82E190E04BEC54E0E5CF8BE390E0F1
:1050600040E954E0E0CF80E189BD82E189BD09B427
:1050700000FEFDCF8091D8008F7D8093D800809175
:10508000E00082608093E0008091E00081FDFCCF31
:105090000895AF92BF92CF92DF92FF920F931F932A
:1050A000CF93DF936C01EB018A010E94A829F82EAF
:1050B000811123C00115110539F0F801808191811A
:1050C000C81BD90BC80ED91EB12CA12C2097A9F052
:1050D0008091E80085FD22C08091E8008E77809362
:1050E000E80001151105A1F0F80180819181A80E59
:1050F000B91EB182A08285E0F82E8F2DDF91CF916D
:105100001F910F91FF90DF90CF90BF90AF900895C7
:105110000E94A8298823D1F2F82EEFCFF6018191C1
:105120006F018093F1002197FFEFAF1ABF0ACECF36
:10513000FC0180918B0390918C0386179707A0F058
:105140006115710529F49091E8009E779093E8002D
:1051500090E06115710551F4911108C08091E8004B
:1051600082FF34C080E00895BC01F2CF80918403B7
:105170008823C1F18530C1F18091E80083FD30C002
:105180008091E80082FDEACF8091E80080FFE1CFC6
:105190008091F3002091F200382F6115710519F00C
:1051A0002830310558F091E02830310509F090E0C1
:1051B0002091E8002E772093E800CBCF8191809357
:1051C000F100615071092F5F3F4FE7CF8091840359
:1051D000882341F0853041F08091E80083FFBECF05
:1051E00081E0089582E0089583E00895FC018091B4
:1051F0008B0390918C0386179707A0F061157105BA
:1052000029F48091E8008E778093E80090E06115A2
:10521000710551F4911108C08091E80082FF35C0FA
:1052200080E00895BC01F2CF809184038823C9F106
:105230008530C9F18091E80083FD31C08091E8009C
:1052400082FDEACF8091E80080FFE1CF8091F300FA
:105250002091F200382F6115710519F028303105C1
:1052600058F091E02830310509F090E08091E80095
:105270008E778093E800CBCF84918093F1003196B4
:10528000615071092F5F3F4FE6CF809184038823DF
:1052900041F0853041F08091E80083FFBDCF81E08F
:1052A000089582E0089583E00895982F973028F0BC
:1052B0008F708093E90081E008959093E900242F96
:1052C000762F50E0981731F07091EC002091ED00AE
:1052D0005091F00021FD02C09F5FE8CF3091EB00BC
:1052E0003E7F3093EB003091ED003D7F3093ED0039
:1052F0003091EB0031603093EB007093EC00209321
:10530000ED005093F0002091EE0027FDE5CF80E006
:1053100008958091850387FF13C08091E80082FF84
:1053200006C08091E8008B778093E80004C08091EC
:1053300084038111F2CF0895809184038823D9F3E7
:105340008091E80080FFF8CF8091E8008E77ECCF65
:105350002091E4003091E50095E6A9012091EC0050
:10536000822F817020FF06C08091E80080FF06C078
:1053700080E008952091E80022FD1AC08091840306
:10538000882389F0853089F08091EB0085FD0FC07E
:105390002091E4003091E50042175307F9F2915053
:1053A000E1F684E0089582E0089583E0089581E0C5
:1053B00008950E94482A0E94502AE0EEF0E0808181
:1053C00081608083E8EDF0E080818F77808319BC75
:1053D000A7EDB0E08C918E7F8C9380818F7E80834F
:1053E0001092830308950F931F93CF93DF930E942E
:1053F000482A0E94502AC8EDD0E088818F778883A0
:1054000088818068888388818F7D888319BC109209
:10541000840310928003109282031092810300EEA5
:1054200010E0F80180818B7F808388818160888390
:1054300042E060E080E00E945529E1EEF0E08081EA
:105440008E7F8083E2EEF0E08081816080838081C6
:1054500088608083F80180818E7F8083888180616D
:105460008883DF91CF911F910F910895E8EDF0E0CF
:1054700080818F7E8083E7EDF0E080818160808392
:1054800084E082BF81E0809383030E94F329089522
:10549000E8EDF0E080818E7F80831092E200089535
:1054A0001092DA001092E10008951F920F920FB649
:1054B0000F9211242F933F934F935F936F937F939A
:1054C0008F939F93AF93BF93EF93FF938091E100EE
:1054D00082FF0BC08091E20082FF07C08091E10053
:1054E0008B7F8093E1000E94B42C8091DA0080FFD2
:1054F00019C08091D80080FF15C08091DA008E7F9E
:105500008093DA008091D90080FF96C080E189BD48
:1055100082E189BD09B400FEFDCF81E08093840360
:105520000E9495268091E10080FF19C08091E200E1
:1055300080FF15C08091E2008E7F8093E200809111
:10554000E20080618093E2008091D80080628093C5
:10555000D80019BC85E0809384030E94A92680911D
:10556000E10084FF2BC08091E20084FF27C080E12E
:1055700089BD82E189BD89B5982F917080FFFBCFED
:105580008091D8008F7D8093D8008091E1008F7E3C
:105590008093E1008091E2008F7E8093E200809111
:1055A000E20081608093E20080918003882309F407
:1055B00049C084E0809384030E94B2268091E10078
:1055C00083FF29C08091E20083FF25C08091E10024
:1055D000877F8093E10082E08093840310928003B0
:1055E0008091E1008E7F8093E1008091E2008E7FC8
:1055F0008093E2008091E20080618093E20042E0CB
:1056000060E080E00E9455298091F00088608093DE
:10561000F0000E94A626FF91EF91BF91AF919F915C
:105620008F917F916F915F914F913F912F910F904B
:105630000FBE0F901F90189519BC109284030E9402
:10564000A32670CF8091E30087FD93E090938403BD
:10565000B3CF1F920F920FB60F9211242F933F9347
:105660004F935F936F937F938F939F93AF93BF936A
:10567000CF93DF93EF93FF93D091E900DF70809198
:10568000EC00C82FC17080FDC0E81092E900809145
:10569000F000877F8093F00078940E946D2B109229
:1056A000E9008091F00088608093F000CD2BCF70EE
:1056B000C093E900FF91EF91DF91CF91BF91AF913E
:1056C0009F918F917F916F915F914F913F912F911A
:1056D0000F900FBE0F901F901895AAE2B0E0E3E77D
:1056E000FBE20C948A2D85E893E02091F100FC0107
:1056F0002193CF01F3E08D389F07B9F70E94D2269E
:105700008091E80083FF1EC18091850390918603FC
:105710009A3008F017C1E92FF0E0E059F04D0C94F1
:10572000442D803899F0823809F00CC180918903AA
:105730008F70873008F006C18093E9008091EB00FC
:1057400085FB882780F91092E90006C080918103CB
:1057500090918203911182609091E800977F9093DD
:10576000E8008093F1001092F1008091E8008E77BC
:10577000E5C0882309F4D3C0823009F0E3C08091EA
:1057800087038111D6C0809189038F702FEF280F76
:10579000263008F0D7C08093E9002091EB0020FF6D
:1057A000C8C0933031F48091EB0080628093EB00AD
:1057B000C0C09091EB0090619093EB0021E030E04D
:1057C00001C0220F8A95EAF72093EA001092EA00BE
:1057D0008091EB008860EACF8111B4C010918703FB
:1057E0001F778091E3008078812B8093E300809184
:1057F000E800877F8093E8000E9489298091E80073
:1058000080FFFCCF8091E30080688093E30082E01A
:10581000111183E08093840395C08058823008F092
:1058200091C080918703909188038C3D23E092077B
:10583000A1F583E08A838AE289834FB7F894DE0179
:10584000139620E03EE051E2E32FF0E05093570042
:10585000E49120FF03C0E295EF703F5FEF708E2F61
:1058600090E0EA30C0F0C7968D939D932F5F24316E
:1058700059F74FBF8091E800877F8093E8006AE284
:1058800070E0CE0101960E9498288091E8008B7705
:105890008093E80057C0C096E7CF6091890370916C
:1058A0008A03AE014F5F5F4F0E94D327BC01892B53
:1058B00009F448C09091E800977F9093E8008981AF
:1058C0009A810E94F628E1CF8038E1F58091E800C6
:1058D000877F8093E800809180038093F10045CF1B
:1058E000811130C090918703923060F58091E8007B
:1058F000877F8093E800909380030E94892980919C
:105900008003882311F084E005C08091E30087FDC7
:10591000FACF81E0809384030E94BD2613C080915A
:105920008703813079F481E0933009F080E080933F
:1059300082031092E9008091E800877F8093E8005D
:105940000E9489298091E80083FF0AC08091E800C5
:10595000877F8093E8008091EB0080628093EB006A
:10596000AA96E3E00C94A62D0895CF93809184032A
:105970008823A1F0C091E900CF709091EC00892FAD
:10598000817090FD80E8C82B1092E9008091E800BA
:1059900083FD0E946D2BCF70C093E900CF910895D5
:1059A000DB018F939F930E94682DBF91AF91A29FBF
:1059B000800D911DA39F900DB29F900D112408950D
:1059C000991B79E004C0991F961708F0961B881F51
:1059D0007A95C9F78095089587FB082E062687FDDE
:1059E000819567FD61950E94E02C0EF4919507FC6E
:1059F00081950895AA1BBB1B51E107C0AA1FBB1FBD
:105A0000A617B70710F0A61BB70B881F991F5A954A
:105A1000A9F780959095BC01CD01089597FB072EBD
:105A200016F4009407D077FD09D00E94FA2C07FCE9
:105A300005D03EF4909581959F4F0895709561959E
:105A40007F4F0895A1E21A2EAA1BBB1BFD010DC0BA
:105A5000AA1FBB1FEE1FFF1FA217B307E407F5071E
:105A600020F0A21BB30BE40BF50B661F771F881FFA
:105A7000991F1A9469F760957095809590959B0190
:105A8000AC01BD01CF010895EE0FFF1F0590F49109
:105A9000E02D09940E94522D332312F48A1B9B0B94
:105AA0000C94632DA29FB001B39FC001A39F700D02
:105AB000811D1124911DB29F700D811D1124911D16
:105AC00008950E94522DB7FF0895821B930B0895ED
:105AD0000E94522DA59F900DB49F900DA49F800D04
